:020000041000EA
:1000000000B5324B212058609868022188439860DF
:10001000D860186158612E4B002199600221596106
:100020000121F02299502B49196001219960352056
:1000300000F044F80222904214D00621196600F024
:1000400034F8196E01211966002018661A6600F04E
:100050002CF8196E196E196E052000F02FF8012189
:100060000842F9D1002199601B49196000215960AB
:100070001A491B48016001219960EB211966A021F2
:10008000196600F012F800219960164914480160C1
:100090000121996001BC002800D000471248134993
:1000A000086003C880F30888084703B5996A0420EC
:1000B0000142FBD001200142F8D103BD02B5186610
:1000C0001866FFF7F2FF186E186E02BD00000240BE
:1000D000000000180000070000035F00212200005C
:1000E000F4000018222000A00001001008ED00E03C
:1000F00000000000000000000000000074B24E7A12
:1001000000000420C10100100D4E011091D2011019
:1001100000000000000000000000000000000000DF
:100120000000000000000000000000000D4E011063
:1001300000000000000000000D4E01100D4E0110E7
:10014000315301100D4E01100D4E01100D4E0110D6
:100150000D4E0110FD0100100D4E01100D4E01104D
:100160000D4E01100D4E01100D4E01106552011083
:100170000D4E0110C15201100D4E01100D4E011017
:10018000010000200D4E01100D4E01100D4E01100A
:100190000D4E01100D4E01100D4E01100D4E0110AF
:1001A0000D4E01100D4E01100D4E01100D4E01109F
:1001B0000D4E01100D4E01100D4E01100D4E01108F
:1001C00015F01AFA084809490022814201D004C0FA
:1001D000FBE707480749084A814202D008CA08C01D
:1001E000FAE714F08BF800DE40010020043E002006
:1001F000000000203C01002054120210FEB506AFA2
:1002000001262048056CE8041F4C05D5300320600A
:100210001E480C3015F080FA280405D5F003206044
:100220001A480C3015F078FA680405D5B003206040
:1002300016480C3015F070FAE80304D5300420603D
:10024000134815F069FAE80600D4FEBD0D480168B0
:100250000191016000260E4D0E480290202EF4D030
:10026000019CF440E00702D0029815F055FAA0076F
:1002700002D5284615F050FA029808300290083549
:10028000B61CEBE75800115090301150203D002073
:10029000143400209433002080B500AF0169002998
:1002A00011D04369491E01618268511C8160C16897
:1002B0005918491CC16003684168184608F006F9DE
:1002C0000146012080BD002080BDD4D4FEB506AF1C
:1002D000044626480068C00539D1206800283BD173
:1002E00002910021C843224601C201925C20205C99
:1002F00025465C35012804D120460C3015F0E6F97E
:100300002978606DA26D0223904202D1C9071E4672
:100310000FD000932146143100222A70431C102B69
:1003200000D01A46626580000E58F0B20228009B89
:1003300006D1029806C801981D4615F0D2F9284644
:100340002168491C2160FF218E433018FEBD0848FA
:1003500014F0E5FD14F00AFE064814F0D5FD13F084
:10036000D7FA14F0C5FE14F001FEC04604ED00E01B
:100370006C0000005D000000B0B502AF0446C0682C
:10038000002809D025460C35284613F07DFE0028AC
:1003900000D0B0BD002028602068012804D160682A
:1003A00000216160A168B0BD0020B0BDF8B504AF08
:1003B00004462020205C002804D0032867D1E5698A
:1003C000286811E00DCC0C3C25460C350DC5828803
:1003D000934202D9002001264DE082792546183546
:1003E0007F201040A061E5610F284CD8C0002B4A47
:1003F00010180B684A68194615F0ABF928681028E0
:100400003CD2C00028494018802541592748401C4B
:10041000014202D0032630462DE0009123460C33E2
:100420000DCB4188008800F011F9A069102825D271
:1004300061691E4A114001262B467503009A9543B7
:100440006918F2038918C000174A10180093C150A8
:100450000C201BF0DDFDA06910280FD2C00012494E
:1004600008186169114A11400D432121890229436D
:10047000009A8150022020342670F8BD08481D21C2
:10048000084A14F019F91021034A14F029F9014817
:1004900014F0B2FC6CE401107CE4011094330020F1
:1004A000000002105C00021000001050FF0300006A
:1004B000DCB504AF14460A460146009300202346EB
:1004C00015F020FADCBDD4D4F0B503AF85B00C46EE
:1004D00006462020085C002804D0032873D1E56973
:1004E00028680BE00BCC0C3C25460C350BC58179FC
:1004F00025461835E5617F200840A0610F285ED8A9
:10050000C0003449081806CA15F023F928681028D5
:1005100050D2C0003249401884214558314A501CFD
:10052000054203D00220307003233FE028461040EC
:1005300062690123049282421A4633D303910193E4
:100540000296E6682169284B0090049AFFF7B0FFF5
:1005500002460B467188308800F05CF8A0691028CC
:1005600028D201214E03AE43E16889881D4A11401B
:100570007118C0001A4A1018039D41510C201BF03D
:1005800047FDA069102815D2C00015490818E16878
:100590008988144A11400E439119491C4151002287
:1005A00000AE49CE7060002171703270203423702B
:1005B00005B0F0BD08481D21084A14F07DF810214F
:1005C000034A14F08DF8014814F016FC8CE4011075
:1005D000ACE4011014340020000002106C00021082
:1005E00000001050FF0300009CE4011080B500AF34
:1005F000C0B20C2804D2052109078001401880BD33
:1006000002481D21024A14F057F8C046D0FF0110DD
:10061000F0FF0110DCB504AF89B28B420AD808495B
:10062000009180B20749441810461946224615F039
:1006300067FCDCBD044814F072FC14F097FCC04663
:10064000BCE40110000010505A000000E0B502AFF9
:1006500089B28B4208D80749009180B206494018F8
:10066000194615F04DFC8CBD044814F058FC14F0EC
:100670007DFCC046CCE40110000010505900000081
:10068000FEB506AF02900126F0040025BC68844246
:1006900008D8009301912346A00001214C05201A9F
:1006A000824203D92946304603B0F0BD9007FAD103
:1006B0001149019C0868800701D44869FAE70120C4
:1006C00000071018C8600B610298C00710D01D46C3
:1006D0002046FFF78BFF0A49016000994160856061
:1006E0002107490C074A8918C16000262146DAE72C
:1006F000024813F0D7FFC046080000144CE5011073
:10070000000040502980120080B500AF06C80838AC
:10071000914206D00A460C3202608268531C836004
:1007200000E00021104680BD80B500AF06C8083843
:10073000914207D0E12292008A1802608268531C1D
:10074000836000E00021104680BD80B500AF06C880
:100750000838914206D00A46183202608268531C5B
:10076000836000E00021104680BD80B500AF0146E7
:100770004068002806D0401E48608868421C8A6095
:10078000096880BD002180BD80B500AF06C808386B
:10079000914206D00A46B43202608268531C8360DC
:1007A00000E00021104680BD80B500AF824203D337
:1007B0000B18111A184680BD114613F03DFFFEB507
:1007C00006AF0D4606461C680193586802900298D1
:1007D00084420ED02C60B4346C600198046003CE67
:1007E0002B46083E00F01CF90A46C007EFD1002056
:1007F00000E00120114603B0F0BDD4D4F0B503AF42
:10080000FFB09CB04122930059AAD31805934369C5
:10081000099303690893C368049383680793521C80
:10082000039255AAD21C029202680B680A91496889
:100830000B914168203106910190806910900092DF
:100840001E460B98834200D181E031460C310A9854
:100850000D9101601068401E1060079D29688A1C78
:100860000698494B11F0ECFC13F092F8014611ACDC
:10087000204616F0E5F90C9630460ECC0EC02868DE
:10088000801C28600898056809980668754366D03A
:10089000002E67D0049C2088109908180E903B48C1
:1008A00014F032FB208816F019FB0E9C20462946D6
:1008B0001BF0C6FF0F904543641B204631461BF0DA
:1008C000BFFF0546324988476E43A01B0E90304C4F
:1008D000A0470F98A04714F00BFC11A90C22029816
:1008E0001BF0A9FF59AC012020700598294E066025
:1008F00055A90F2203981BF09EFF0F98A0740E9825
:100900006074257424480068C0052ED13068002822
:1009100030D10023D8433060311D14AC59AA204691
:1009200000F03AFE3068401C30602078132802D076
:100930001C4814F0F4FA1099491C01981091816137
:10094000009A106800280D9B0C9E00D078E70B9849
:10095000301A411E8841FE1F053EB546F0BD1348C2
:1009600014F0A8F8104814F0A5F80C4814F0D7FAC1
:1009700014F0FCFA0A4814F0C7FA12F0C9FF14F098
:10098000B7FB14F0F3FAC0468CF10110220000000E
:10099000F14E0110C837002004ED00E06C000000AB
:1009A0005D0000007E0000001CF001100CF0011042
:1009B000FEB506AF0D460090146801925068029093
:1009C0002646029884420BD03446B4342E606C60C4
:1009D0000198046000982946FFF710FF0028EFD027
:1009E0000298301A411E8841FEBDF8B504AF18CAFE
:1009F0000094083A009CA34210D00F290D4600D362
:100A00000F254E1B0C246C431C19B4330F291360A3
:100A1000046043603146EDD80120F8BD0020F8BDE8
:100A2000F0B503AF85B014460191009018680293A9
:100A300059680391019D0399884218D006460C36E7
:100A400002990E6015F0EEFF049029688A1C009848
:100A5000094B11F01AFC049A12F06AFF2868801CF6
:100A60002860641E601C3046E5D3002000E00120B1
:100A7000214605B0F0BDC0469CF10110F0B503AFB2
:100A800085B00446407A0394784400794000874456
:100A900002B1BA432900606820600146FE31227A23
:100AA0007A44127952009744026D56675000022032
:100AB00008712068FE21002545542068FF21455417
:100AC00004312068455424689C2001902058C600B9
:100AD0005C34002E67D003CC0969083C8847083E87
:100AE0000834F6E7207CC00700D086E020680121AA
:100AF0002174812149000022425424689C202058FE
:100B0000C5005C34002D70D003CCCA680021083CBD
:100B10009047083D0834F5E7207CC00770D1206875
:100B200001252574812149000222425424689C2019
:100B30002058C6005C34002E57D003CCCA68294622
:100B4000083C9047083E0834F5E700210246A032F1
:100B5000E2602161CBE70020087024689C202058C7
:100B6000C5005C34002D40D003CCCA690021083C8C
:100B70009047083D0834F5E700210246A032E260C4
:100B80002161CDE701250D7024689C202058C60006
:100B90005C34002E29D003CCCA692946083C904712
:100BA000083E0834F5E703980168886D4831400035
:100BB000081802900298814217D000200491087012
:100BC0000398046801982058C6005C34002E08D0B1
:100BD00003CC4B6A00222946083C9847083E08345B
:100BE000F4E76D1C0499891CE4E70120039948721D
:100BF00005B0F0BD064814F0FFF8034814F0FCF807
:100C0000024814F0F9F8FEDEAC0002109C0002105D
:100C10009CE5011080B500AF002080BD80B500AF1D
:100C2000002080BD80B500AF80BDD4D4FEB506AF36
:100C3000044606463436407C0D46C046784400796A
:100C4000400087440225303D5300E168A1606068A0
:100C50000A2820D223688988092808D10022227412
:100C6000002911D12B4837212B4A13F02BFD029379
:100C7000002915D0019000911CF0F2FA4A424A4135
:100C8000019822740099029B6361A061E1610BE00D
:100C90001D4814F0B1F81D4814F041F914F066F93C
:100CA0001B4814F09FF8FEDE2046143013F0ECF9D8
:100CB000002811D000223273A26822626062A16211
:100CC000204620302946FFF771FBC0B20228EBD046
:100CD000032816D1014615E0207C012810D1002000
:100CE00001213070A2686261A161E0612046143088
:100CF0002946FFF75BFBC0B2032802D1042101E0C3
:100D0000022001216174FEBDCCE7011063000000E8
:100D1000ACE7011094FE0110BCE70110F0B503AF81
:100D20009DB015460E4604468720085C1968079159
:100D30001193596810913246E8320128149219D162
:100D4000106818AA002151711171D170032393709A
:100D5000517010700B210623304614F035FE716976
:100D6000B069401F884200D358E131690A5C521CC7
:100D70000A54149A06951368082B00D327E15800EB
:100D80003018D821002545521168491C116099423C
:100D900000D826E1D921425C521C42543068012817
:100DA00000D022E1059471697068884200D321E186
:100DB0005B21890071181291B968099131690A5C47
:100DC000521C0A540124B069001DB460F06018AAD6
:100DD00095715571157103200F90D07095705570F5
:100DE0000493137004210723139330460D9114F0DC
:100DF000EBFD1098010A18AA0391917150712220FD
:100E00001071D47095700C945470102010702121C2
:100E10003046139B14F0D8FD0A963246EF323F203D
:100E2000C44320463F3011998B7C0E93098A13915D
:100E30002346002B00D1ECE0401CD11840254E5D2C
:100E40001B1D1499C91840310028F2D0F607F0D1C3
:100E5000139E412E00D3D0E032463F32C0231340D0
:100E6000129A168814930896F3189EB20B960C9E4D
:100E700036030C960B9AB24200D9C7E0129A13803F
:100E8000139B0B80FF2204324A80411E0F2900D39E
:100E900093E00B92C9006F4A89180B239A060292BD
:100EA000089EB3188B6015A90F9B0B720E9ACA711E
:100EB000139A8A80149A4A800E8080221043887187
:100EC000091D0A9E304614F0D3FD099800283ED033
:100ED0002520C00030183F34002D00D1A4E0641C50
:100EE0002D1F011DC279002C0846F5D0D0070846F9
:100EF000F2D1129D2888149A0D90821893B20C9802
:100F0000834200D98DE02A80139A0A800B9848808A
:100F1000611E0F2956D2029B0D9D2B43C9004D48DF
:100F20004118CB6018A90F9808720E9BCB718C7179
:100F30008A80149A4A800D80091D304614F098FD6D
:100F400019981390189814900F980D90FFE7324657
:100F5000503207CA3346483314F030FE06990398DE
:100F60004877109D0D773D4888613D48C88209202B
:100F700048750498087530460E462036119A9368D5
:100F8000D268079C70C10B604A60364A0C3900F089
:100F900097F8139A100C05990882CA81149A100CBC
:100FA00088814A810D98887415A80C460CC80CC419
:100FB0004E61008820801DB0F0BD24481D21244AC8
:100FC00013F07AFB21481D21234A13F075FB1B48BF
:100FD00013F09AFF082013F08BFF14F089F813F038
:100FE000C5FF174A184613F07BFB164813F097FF0E
:100FF00013F0BCFF144A13F073FB1F4813F084FF77
:10100000304615F06BFF14F073F802E0164813F049
:1010100086FF1A4800901A48182109E0064A13F082
:101020005FFB114813F07BFF104800901048192116
:101030001CAA104B13F0BCFE40E801106800000031
:1010400050E801106A000000A40602101D00021002
:101050003C000210000010504C0002100100012260
:10106000211000000CE801102A000000A4E8011083
:1010700088E80110B0FE01102B00000078E8011094
:1010800060E8011080B500AF80BD80B500AF0021E1
:10109000016080BD80B500AF002080BD80B500AF8D
:1010A000002080BD80B500AF022080BD80B500AFBC
:1010B00080BD80B500AF80BD80B500AF80BDD4D409
:1010C000D0B502AFD423C358082B0AD2DB00C31813
:1010D000D4309424195194335A600168491C01603A
:1010E000D0BD054813F010FF082013F001FF13F0E6
:1010F000FFFF13F03BFFC04667000000B0B502AF32
:101100000D460446243004F0ADFFC00706D124226A
:10111000204629461BF08FFB2046B0BD02487921AE
:10112000024A13F0CFFAC046B4E80110F0E801100B
:10113000B0B502AF0D460446103004F093FFC0076F
:1011400006D11022204629461BF075FB2046B0BD73
:1011500002487921024A13F0B5FAC046B4E80110FA
:10116000F0E80110B0B502AF0D460446803004F03F
:1011700079FFC00706D18022204629461BF05BFB81
:101180002046B0BD02487921024A13F09BFAC046BE
:10119000B4E80110F0E80110D0B502AF044604F045
:1011A00061FFC00701D1601CD0BD02487921024A0D
:1011B00013F088FAB4E80110F0E80110F0B503AFBD
:1011C000CBB00446007BC00756D16568A1680020FB
:1011D000A9424DD301225305994249D808462843D4
:1011E0000005104644D10D2000070068002801D0FA
:1011F00002203DE0481B029014F0CEF8C0B20390EC
:1012000000200C280BD00521090782015118401C31
:101210000A68520FF5D1CA68D201F2D5F8E718482A
:1012200001680029FCD1012631020191009605A830
:1012300004901BF079FE1420008818210A881149B7
:101240009047034631070498019A984745A80190B2
:10125000002600993246049B14F04AF92846029968
:101260003246019B1CF00EF8039814F0FBF80420A2
:10127000012121734BB0F0BD034813F0BDFDC04602
:10128000180000144334000000E90110F0B503AF6A
:10129000D1B00546007CC00700D063E1AA680126F2
:1012A000710500208A4200D920E1EB68891A8B423F
:1012B00000D91BE11946FF31FF20069081430E91B2
:1012C000C91A8A42144600D30C460D9169680891E8
:1012D00031020D2000071094002C09960B900F91FD
:1012E0000792059334D011AEFF2230460C460C9283
:1012F0001BF080FE0D98211A109C0A199B4B30465A
:101300000E4610F0ACFF9A4A0092089A234614F059
:10131000F7FD0B980068002800D0E5E004950598DB
:10132000801B0D900998040645070520060714F058
:1013300033F8C0B20A9000200C2810D08101711837
:10134000401C0A68AA42F7D2CA682242F4D0F8E7E1
:1013500089491140FF2A10460E9318D89DE0854810
:1013600001680029FCD111A90D980F9A14F000F919
:101370000A9814F077F8079A109BD01A01460C9C33
:10138000A1431943FF28049D099E00D885E00290DF
:1013900004957507681E089C844209D991420B98F0
:1013A00000D9D6E0006800284ED00220049D9DE0C0
:1013B00091420F9B00D9D0E0109822180391081A8F
:1013C0006E4901400D913606052004070699C84371
:1013D0000A900D9800285DD011A8114610921A4667
:1013E0001BF029FA0B98006800282AD10D980A9959
:1013F00040180D900F9810990918109113F0CCFF18
:10140000C0B20C9000205B4B0C2809D08101611800
:10141000401C0A68AA42F7D2CA683242F4D0F8E700
:1014200018680028FCD111A90E980F9A14F0A0F8A2
:101430000C9814F017F80F9B0E98C0180E90109A85
:10144000C7E70220049D50E0109822180D920391E6
:10145000081A109034060520060713F09DFFC0B24D
:101460000C9000200C2809D081017118401C0A68DA
:10147000AA42F7D2CA682242F4D0F8E73D48016890
:101480000029FCD10E980D99109A14F071F80C985F
:1014900013F0E8FF099E02AD23CD0391C4B20420EE
:1014A000002C23D00E9011A810900F9E3146069A62
:1014B0001BF0A0FD334B204610993246FEF7F8FF93
:1014C00004460E46304B03980899079AFFF76CF9CB
:1014D00002460B462D4800902046314614F010FD80
:1014E0000B980068002804D00220099E2E7451B089
:1014F000F0BD0495059807990818FF3006998843B0
:10150000C9434018109009980406460705200507AE
:1015100013F042FFC0B20D9000200C2809D08101C9
:101520006918401C0A68B242F7D2CA682242F4D055
:10153000F8E7104801680029FCD111A910980F9A0A
:1015400014F016F80D9813F08DFF049D099E0E9867
:10155000CCE70F4B109813F06FF8094B1098079ACF
:1015600013F06AF80B4813F047FCC046DCE40110A6
:10157000ECE401101800001400FF3F0000FFFF7FA3
:10158000FCE401101CE501102CE501103CE5011004
:101590000CE5011010E90110F8B504AF0D46044642
:1015A000212040010E18307A002813D01678132E0F
:1015B00025D0511C002B07D01868009106C80835AB
:1015C000284614F08EF80099601CFF2204321BF0AC
:1015D00032F918E041208300706858432818103011
:1015E00011461A461AF027FD7068401C042800D1E5
:1015F000002070603168814201D10120307228469C
:1016000014F064F813262670F8BDB0B502AF194681
:10161000154604467D20C200002328461BF03AFDF3
:10162000024620460B4614F0D1F8B0BDF0B503AF2A
:1016300087B0049104462920C100605C2246303204
:1016400000280592039111D0032846D1204610307E
:101650000290107878440079400087440241442188
:101660001F002546103529CDE2690BE000201070DF
:1016700029CC22680C3C2146103129C1E261214667
:1016800010310291214620312DC1A90701D0012539
:101690002AE0990706D00022A26330E015794CE0D9
:1016A00015790DE041780078AD080095FEF7E8FF68
:1016B0000D46059A917101210140517164D1157156
:1016C0002846049912F014FD002801D0032013E0ED
:1016D0002046343010F00CFB54E0374813F08CFBFC
:1016E000344813F089FBFEDE01200599087002984A
:1016F00010F086FB01204EE00599087049E0954204
:1017000040D9234648332364A81A0121FF2800D971
:101710000802E06385086564206A666A069141787C
:1017200000780095B218FEF7ABFF0D46059A91714F
:1017300006990840507127D115712846049912F076
:10174000D7FC00282DD12046343010F0D1FA2246A3
:10175000383207CA0692666CA26AE36A174D009592
:10176000091814F0CFF8B200E36B93421BD8144A67
:101770000092069A14F0C4FBA06BE16B4218A263BE
:10178000E56ABCE70425AFE701201070E8B2052840
:10179000ADD105250320039961180870284607B0CC
:1017A000F0BD0420A8E70020064C1946234612F09D
:1017B00043FFC0465CE5011020E901106CE5011013
:1017C0008CE501107CE50110E0B502AF002000902F
:1017D000C0430190684604F075FCD4D4F0B503AF63
:1017E000F84EB544F84A6A444292F84A6A447692FE
:1017F000F74A6A443E92F74A6A4436927F9102461B
:10180000F54810181C90F54810181B90F448101853
:101810001D90F4481518F44810184F90F34810180C
:101820005090F34810185190F24810185290F24816
:1018300010185390F14810185490F1481018569011
:10184000F04810185790F04810185890EF481018AA
:101850005990EF4810185A90EE4810185B90EE48D7
:1018600010185C90ED4810185D90ED4810185E90CF
:10187000EC4810185F90EC4810186090EB48101876
:101880006190EB4810186290EA4810186590EA4899
:1018900010186690E94810181A90E9481018389006
:1018A000E84810187090E84810188190E748101820
:1018B0008790E7481418E74810188490E6481018F5
:1018C0008690E64810188390E54810183190E54856
:1018D00010181790E44810188290E4481018899066
:1018E000E34810187190E34810186D90E248101802
:1018F0003590E24810182F90E14810183F90E148C9
:1019000010186390E04810183A90E048101844907E
:10191000DF4810184390DF4810187E90DE481018FA
:101920003090DE4810182290DD4810183290DD48C3
:1019300010183790DC4810182D90DC4810182190B2
:10194000DB4810184190DB4810186C90DA481018EA
:101950006B90DA4810187490D94810182090D94824
:1019600010186890D84810186490D84810183B9008
:10197000D74810184090D74810187890D6481018BB
:101980006E90D64810183C90D54810182590D54830
:1019900010182690D44810182490D4481018279076
:1019A000D34810183990D34810182C90D2481018EA
:1019B0007790D24810187D90D14810188890D1485F
:1019C00010187990D04810183D90D04810186990A0
:1019D000CF4810187A90CF4810187590CE4810183C
:1019E0006A90CE4810181F90B7204000774B6B4488
:1019F00018182B9015204C904001101848908F20FB
:101A0000C00010187290B1202390C00015901018DB
:101A100049906320400110181990FF207B9000012D
:101A200010184B9021204A90C00110184D908D2025
:101A30002E90400110184E904B207390800110188A
:101A40005590A52040011018479081201E908001DC
:101A5000101867905920C00110183490B048101821
:101A60007C908078594969447831339119465C31CA
:101A7000299119467C312891D4332A930921169152
:101A800049018A9111463231189113467E33809272
:101A90008594400078448088400087440400710A9F
:101AA00040227E0067006F95109300267C98067098
:101AB000467013F071FC9B4A5179012901D101F064
:101AC00062FAC0B20124547113F0CCFC96499748D5
:101AD0000860974DAE64E8688B94A043E86068693D
:101AE0000128FCD12868032290432860A8680128B7
:101AF000FCD113921003086013F0C8FC8D488E4986
:101B000041608160AB21090101618C4901608C4811
:101B10000168F0220A40B02A07D00168B0220A43C7
:101B200040218A4302609121416086488649C16014
:101B30008649016041680029FCD5854C2D20149010
:101B400060600A201AF064FA22468B9820607D209B
:101B5000A0600C20469060607E4C204611680029F1
:101B600000D50AE1401CF9D37B4826E1062077998D
:101B70000858891D6F91496800230222121A1A46DB
:101B80008A4101D200F054FD084301D100F0E4FD88
:101B90006D93809A889B02F047FF819D287D7C99F8
:101BA0001731729129461431629110934000C0465A
:101BB0007844808840008744D100EC09B2215F0559
:101BC0003E05C0468CCFFFFF58300000501D00007E
:101BD000280A000030090000380C0000E80E000060
:101BE000140F0000640F0000840F0000A80F000015
:101BF000CC0F000014100000381000005C10000032
:101C0000A4100000C8100000EC100000101100002B
:101C100034110000581100007C110000C4110000B4
:101C2000E81100000C1200003012000054120000F5
:101C3000781200009C120000E4120000181400004A
:101C400010150000F81500003816000058160000A6
:101C50007816000098160000B8160000D81600008C
:101C6000F81600003417000088170000A8170000BD
:101C7000C8170000E81700008C180000C818000002
:101C8000CC190000EC1900000C1A0000D01A00005A
:101C9000F01A0000101B0000301B0000501B000059
:101CA000F81B0000181C0000381C0000581C000025
:101CB000F8240000682500008A250000F8250000AF
:101CC0006C26000028280000E028000010290000F1
:101CD000BC290000DC290000FC290000902B00003A
:101CE000B02B0000D02B0000A42C0000C82C00005A
:101CF000EC2C00000C2D0000E22D0000062E000050
:101D0000282E0000482E00006C2E0000982E0000A7
:101D1000B82E0000D82E0000F82E0000182F00006A
:101D2000ED140000203D002000C00040BFCDFB00AE
:101D3000308000400000064000009696A5BFFA00E3
:101D4000004006400040024070170000A0BAFA00B0
:101D500000800240C0BDF0FF57000000819E706807
:101D60006690B1686F91F56831694991B07D8B904B
:101D7000707D65907C9B729890E331200E904003BB
:101D8000D0605068082112918843506064201AF096
:101D90003FF9F149149848600A200F901AF038F979
:101DA000ED4A8B98106078209060469850601068DB
:101DB00000280AD4641CFAD3E84813F0A5F813F0FD
:101DC0008BFB13F095F913F0D1F865200003D06078
:101DD000506812998843506064201AF019F9022063
:101DE00007902860A8680428FCD18A9A203A6A6083
:101DF0008B9B580209900C30D9490860EE606869E5
:101E00000128FCD1EB6068690228FCD12A61DC0260
:101E1000AC61AA626C6208926A632C6398040A90AF
:101E20002864EC63CF4813F031FBF54313F0B4FAA8
:101E3000CD498D63CD63C0B213F014FBCB488B9DAD
:101E40000560CB480560CB4804600B20119013F06F
:101E50002BFBC948C01CC94908600694C4480460EB
:101E60006C03C44804600D200D9013F01DFB059415
:101E7000BF4A1460C2482021016045911160C148E9
:101E80009C2E03D000218151361DF9E7BE49402226
:101E90008B9C002A03D0002308C1521EF9E70921B8
:101EA0000C914167469981670464AF480C3013F088
:101EB00033FC65040020402807D0B44969440D5222
:101EC00009182A0C4A80001DF5E70020402807D099
:101ED000AF4969440D5209182A0C4A80001DF5E7E4
:101EE000A1204001809C2018A84969444026324620
:101EF0001AF0A1FCA32040012018A54969440396CB
:101F000032461AF098FC139EF00147990880A048C9
:101F10006844A04B129C002C04D0D91D0180641E83
:101F20004430F8E711200B9042010492974868442E
:101F30001290974969441AF07EF8002496487299E5
:101F40008860CC609548499E706134748098803078
:101F500047901299049A1BF0C7F891489149B461CF
:101F6000914A489B11C319605C609A60DC6072986A
:101F700004709120C000809908188B990902129171
:101F80001AF023FF89488A498A4A8B4B3360726072
:101F9000B160F060894A03981060894B052119608F
:101FA000884E8B9B33611668134644227292164307
:101FB00008224892D243499216401E605860804AD7
:101FC0009160079E7F4A16615E68729A1643499A2D
:101FD00016401A465E609860794B19610426049693
:101FE000784B1E619668729B1E43499B1E4096600B
:101FF000D0601646724A9161489A724B1A61F6682F
:10200000729A1643499B1E406C4AD66010616C4A16
:102010001162102607966B4A1661684A1669729A11
:1020200016431E40654B1E615861654A9162459A90
:10203000644E3260F2609861614A11633060F06012
:10204000D861916380223260F26018625C4A116448
:10205000089A3260F2605862594A9164099A326073
:10206000F2609862564A11658B9B9A023260F26068
:10207000524AD062524A9165069A3260F2604F4AE3
:1020800010634F4A1166504A121D3260F2604B4A8B
:1020900050634B4A9166059A3260F260474A9063FA
:1020A000474A11679A033260F260444AD063444A57
:1020B0009167DA033260F260404A1064434A11606B
:1020C0002D4B1B1D3360F3603C4B586491603560B1
:1020D000F56098641D4611610A9B3360F360E86403
:1020E000729191618B9BD8043060F06038487C9984
:1020F000139A885013223748099288500F22364885
:10210000139288503548119A8850072234480A9211
:1021100088501E464B700B703248809D28183249FB
:102120001C2208921AF087FBF320000128182F497F
:10213000182206921AF07FFB6F998C71459888805F
:10214000300508604B2C53D01148684400190F210A
:102150001BF005F80F34F5E700C0024058000000FE
:102160002C800540FFFFFF01203D00203840054046
:1021700000E100E080E100E0FCFF0000040400500A
:1021800080E200E00000115000001050480A0000FA
:10219000501D00006E08000040420F0014001400A3
:1021A00050C30000C0D40100FA80FAC00328140410
:1021B00006033201640050006400140004C00140B2
:1021C00004400140180000D0FC0F00008440014092
:1021D00000010203101112130C0D0E0F08090A0B57
:1021E00004050607480F00005CE90110D8EA011059
:1021F000F448809908184990F3496944739A1AF091
:102200001AFB1E206F9B1883F04CDC8229219981D8
:102210005C814F9E4A98B083748345983082F481E4
:102220001F21B18074802421509DA9836C832321B8
:102230002982EC812221A9806C802721519A9183E7
:10224000548326211182D481252191805480FF4816
:10225000C11C998219813183B18131802983A9817F
:1022600029801183918111802A224B988283448393
:102270002E220282C481149A828044803522529D8B
:10228000AA806C802B222A82EC811422AA836C8380
:102290001A22539EB2807480489A3282F4814C9AFA
:1022A000B28374830183818101802983A98129807C
:1022B0003183B1813180549E0698B0831D4674836A
:1022C00008983082F4811722B28074803183B18102
:1022D00031804D9B19839981198026465C8309982A
:1022E0009883DC8112221A825C8046989880569BE3
:1022F0000E9898835C8330221A82DC812F229A8088
:102300005C80198399811980579B049898835C831A
:1023100039221A82DC81739898805C8019839981B4
:102320001980589B0C9898835C830A981882DC81EA
:1023300016229A805C80198399811980599A0D9888
:102340009083548311981082D4810F989080548088
:1023500011839181118033225A9B9A835C83139855
:102360001882DC810E229A805C8019839981198001
:102370004E225B9B9A835C8328221A82DC81342262
:102380009A805C801983998119801D225C9B9A83B5
:102390005C83E1221A82DC8119839981AB48821C1B
:1023A0001A8019234E9CA383668306232382E68129
:1023B0001B23A38066802183A18121805D9B0798D8
:1023C00098835E830B981882DE81729898805E8075
:1023D00019839981198038235E9CA38366833723F0
:1023E0002382E6813623A38066802183A181218018
:1023F0004C235F9CA383668352232382E681E523DB
:10240000A38066802183A1812180E323609CA38334
:102410006683E0232382E6812183A1812280E62353
:10242000619CA38366832C232382E681E223A3801D
:1024300066802183A18121805023629CA3836683CF
:10244000E4232382E681E723A38066802183A181A0
:1024500021804F23659C2382E6815123A3806680DF
:102460002283A1812180559802838281028066980F
:102470000280819E8B9AB2751298B08228460830ED
:1024800066907060B560479DF560499931617C9BAD
:1024900018461730314614316291659282991F2295
:1024A000499C9C501B229D50669B03608B9A0A7628
:1024B000659ACA7500228A75B24A4B608A606F9C21
:1024C000CC600D613346183360930B46163361932D
:1024D000034672938B984875659808756698B06145
:1024E000F261879830C02679012E01D800F045FDB1
:1024F00020688B90A44812F007FD254601206F90BC
:10250000C002A24CA047B000A047287913F058F8A9
:102510002868A04712F0ECFD8B9C002C0CD09C4846
:10252000C01C04428099879D01D000F02FFD2868CF
:1025300000790003001907E06F984005879D29681E
:1025400009790903441A8099AC60E860829EB08AD8
:10255000308090480818092149011AF036FC2346BA
:1025600000207E9C207228460830F06108341C361A
:102570006F96899A8B9441681360516001460831C7
:10258000719A11618A99516100216D9D69747D4E26
:10259000814A80998A182523DB00C01889992B1D50
:1025A00045C37F9802687D4C6C4420460E4603F07C
:1025B000B1FF24780C2C0BD103208B99087000F00C
:1025C000E5FEC046A2140000501D00006208000095
:1025D000734D6D442D6830460FF0B3FD01208B998B
:1025E00008706F9E30460FF052FC062C879A06D179
:1025F000E80704D010684179012900D0E4E0906830
:10260000D168829D35600022899B1A7603C3729B34
:102610001E462C461C3461486844214605F02EFFB6
:102620005E48684400680C2849D1042000F0AEFEE2
:10263000012602F01FFE819818308290E01C8990DC
:10264000E07803A14000085A400087446E0800006B
:102650000B00B504681CEB02C9022103110330030F
:10266000DB02C710879E7169B069F269819CE469D9
:102670003894829D00F024FF819818306090829DEC
:10268000284616306190A87D729B4000784480886F
:102690004000874408008E04441CB30107009801E1
:1026A0009703C501B4E768686690AA68EC68294694
:1026B0002D69819E087E8B90C87D659009E7729692
:1026C0000020819A449E3070879821460446083441
:1026D0008B910C6040689169D269899B06C3186030
:1026E000083BDC6019615A61986101207199087199
:1026F000D448086006201877256861686F9114F047
:1027000031FD7060B5606F98F060204608304399E5
:1027100088608A98C86000207E9D687489981C3003
:10272000311DC94A809B9A182523DB00E3182B60D2
:102730006A60A960E8607F980268344608341748E8
:102740006844214604F018F81448684400680C28CE
:1027500000D08DE003203EE27D980578889B779835
:102760000E30729001206D906D00C0467D44AD88A2
:102770006D00AF444411D41BD41B17003A117801EB
:10278000A203C04600F6011015000000F14E011032
:10279000FC0F000068160000191B0000380500003F
:1027A000400500007D9CA01C7E9018460C30719066
:1027B000187B002800D19AE20328809901D102F009
:1027C00032F8A24812F018FB8079012801D000F0FD
:1027D000E7FD819AD06900686F9D286087990C4653
:1027E000083400203F9B187148689169899A1460E9
:1027F00051609560D0601B1D6D93146151619561AE
:10280000D0610025719E3572756007203070216897
:102810008B9161686F9114F0A5FC3F9A90608B9842
:10282000D0606F981061204608306399C8608A981C
:1028300008613A9B5D75104608308549809A5118A9
:102840002522D200A2185A609960D8601E617F9834
:1028500002683F9C0C347F486844214603F08CFF9B
:10286000F648684400680C2848D1032000F08BFD2E
:10287000F34D6D442D68F14E6E44366820460FF0DE
:1028800075FC0B2E00D074E200206F902F9D2872F3
:102890006860072028708999CC6821686691616812
:1028A000659114F05FFC449E70606698B060659816
:1028B000F06020460830439988608A98C8607E9B03
:1028C0006F985874301D6049809A51182522D200A3
:1028D000A2181A6059609860DD607F9802683446DB
:1028E0000834E0486844214603F046FFDD48684468
:1028F00000680C2800D0F9E004206CE1D94D6D444B
:102900002D6820460FF032FC0B2D01D001F0E2F8CB
:10291000112040018999C9690A1893688B93085856
:102920006F9001208302C8585E90D04C0D5B0C194B
:10293000608816692F9CA660D66866965268659274
:10294000C9184968A08265820820719020717D2293
:10295000D50000265F965E982A4633461AF060FC42
:1029600020826F9865992A4633461AF059FCE08117
:102970008B9866992A4633461AF052FCA0818998B2
:1029800005692E6868688B90719814F0EBFB3F9A8C
:102990009060D6608B981061284608306399C860B3
:1029A0008A9808613A9E5F987075201D114608311B
:1029B000A14A809B9A182523DB00EB187360B26054
:1029C000F160306180E14498007829461C318B9198
:1029D000449E400078448088400087440900F60205
:1029E000A01A08000700EC00E4080E0975E7A2E64B
:1029F000899B06CB18688B9C246871E629461C319C
:102A00007E9804460834007A00286F9100D16BE16B
:102A10008B940328899900D1C3E5FB4812F0ECF9A7
:102A20003F98011D6D910079809E40007844808818
:102A3000400087441200C702741A1100490184043F
:102A40002F08C0469204B168D11A00004CE401106E
:102A5000D119000038050000F9E6899A1468516818
:102A60009568D068C9E602207D990D588A98DF30B4
:102A7000F6490968014200D08EE2286800286D9B63
:102A800000D08CE24D2080002E180021C8432C4637
:102A900001C4307A012805D128460C3012F016FE08
:102AA0006D9B317A05CE083E90421A4600D10A4607
:102AB000D10710D029461431431C00228B93102BD0
:102AC000134600D08B9B3360327212224243885CE3
:102AD000082800D0E1E17F98006806C8204612F07F
:102AE00000FE2868401C2860052043E25E4D6D44CE
:102AF0002D685C4E6E44366820460FF037FB0B2E77
:102B000000D036E111204001899989690A1893683B
:102B10006F930858659001208302C8585C90534C0D
:102B20000D5B0C19608816693F9C6660D6685F96DD
:102B300052685E92C91849682082E5810820669033
:102B400020707D22D60000255D955C9832462B468C
:102B50001AF066FBA08165985E9932462B461AF002
:102B60005FFB60816F985F9932462B461AF058FBE5
:102B700020818998C5682E6868686F90669814F0FF
:102B8000F1FA449948608E600E466F98C8602846F6
:102B90000830439988608A98C8607E9B5D98587415
:102BA000301DAB49809A51182522D200AA181A600C
:102BB00059609860DC607F98026834460834294880
:102BC0006844214603F0D8FD2648684400680C2874
:102BD00000D0B7E005206299619B30700520D7E3F3
:102BE000201D7E90639801460C317291007B002875
:102BF00001D101F09CFA032801D101F0B5FA954802
:102C000012F0FAF83A990879234608337293091DAD
:102C10007E9100286FD0032801D101F07EFD8E48FF
:102C200012F0EAF822460832849E3078800005A12E
:102C30000858839966928746D1190000380500002C
:102C40003C050000592C0010BF2F00101F5F001022
:102C50001F2E0010F12D00102546083523CD00F061
:102C60008FFCC046380500003C0500001C05000034
:102C7000214608313A98031D007900287E9172930D
:102C80003ED0032801D101F007FC744812F0B4F8DB
:102C9000201D8B906399087D14316391002833D0F7
:102CA000032801D101F03CFB6D4812F0A5F8201D6E
:102CB0007E903A98007800282BD0032801D101F0AB
:102CC0009AFC684812F098F87F9802683F9C0C3490
:102CD00065486844214603F04FFD63486844006836
:102CE0000C2819D104204EE30868036841E41A2037
:102CF000205801F08CFDA168E068849E01F0D8FCAA
:102D0000A168E06801F092FBA168E0688A9B01F08D
:102D1000EFFA849E01F01EFC534D6D442D68204651
:102D20000FF024FA0B2D01D000F0D4FE0020899979
:102D30004969E12292008A183F9DA960EA602861F2
:102D4000639C4BE1494D6D442D68474E6E44366897
:102D500020460FF00BFA0B2E0BD100208999096940
:102D6000E12292008A18449D6960AA60E8608B9C09
:102D70005EE13D48684406603C48684405603A4866
:102D800068440AF083FA8B9C01204499087020461D
:102D90000FF03AF987998868C96820603448809AAA
:102DA0001018899AD06111603248829D71994D61E5
:102DB0008C61C8618A98086000206D9948712E481E
:102DC0000860729B72932D4880990C187F98026856
:102DD00025486844214603F0CFFC23486844006836
:102DE0000C2801D10620D1E220460FF0BFF9D7E22E
:102DF000301D6F9030461C307190307F03A1869C4F
:102E00004000085A4000874430F701100600E300F4
:102E10008A184D0141097268B068F16835E1301DCA
:102E20006D90084615308B90487D03A1839D40002E
:102E3000085A40008744C0462400CF007318E003BE
:102E400081042A05D40402058105C20504ED00E0D1
:102E5000D11A000050F70110ECF50110CCF501106B
:102E600018F60110BCF50110380500003C05000003
:102E70006816000000F6011080F70110A41700008A
:102E800086994868729088687190EC6828462B692A
:102E9000849D6A68A9687E9194E37D98801C296866
:102EA000491C2960E7490160E748809A1018E74902
:102EB00051183CC83CC1008808807D998B79082254
:102EC0008A71082B72D002200D588A99DF31E048B0
:102ED0000068084280995FD18B93286800285ED1F2
:102EE000DC480B184D2080002E180024E0432946B2
:102EF00001C1307A00288A930FD07F98006806C8F5
:102F000028460C301C4612F0ECFBD34868441122D2
:102F1000214619F090FC8B991BE08791899270688B
:102F20001221414368188B990175153011221946F9
:102F300019F081FC7068401C102800D004467460B1
:102F40003068A042879801D10121317212F0BEFB96
:102F500089992868401C2860082902D1889B01F0C3
:102F60004EFD7D988171BC49694411228A9819F0FF
:102F700062FC0620889B01F054FDB84802F012FE66
:102F8000B74811F039FFB74802F00CFEB64802F01E
:102F900009FEB64811F030FFB54802F003FEB5480F
:102FA00011F0B2FF10F0B4FCFEF70BFFB24802F0D4
:102FB000F9FDB24811F020FFB14811F01DFFB148F2
:102FC00011F01AFFB04811F017FFB04811F014FFCC
:102FD000AF4811F011FFAF4811F00EFF284608303E
:102FE000FDF7A2FB002909D000222260E122920015
:102FF0008A182B46143307C380990BE0899881699E
:103000000B68002B00D119E100210122AB60EA60BE
:10301000296102E1A0480818FDF7B6FB0029DDD0C0
:1030200000220B46B433251D0BC5226180999EE119
:10303000281DFDF779FB002909D00022E1239B0020
:10304000CB182E4610360BC6EA6180990DE08998A0
:1030500040690068002801D100F054FD00210122E0
:103060006860AA60E96000F03FFDF6480818FDF7C7
:103070008BFB0029DCD08B9400220B46B433439C9D
:103080000BC42260809900F0A8FD1093326170613A
:10309000B161136818320CC420606160002083990C
:1030A0000870083C7F980268E7486844214605F0AC
:1030B000C1F82046E44C6C442468022C7FD0E249DD
:1030C00069444A8A72920E8AE049694409687E918D
:1030D000DF49694409688B91DE4D6D442D680EF01F
:1030E0009AFEE0076ED1002D44D0DB486844729907
:1030F000C181868136990D608B9A4A607E9A8A607A
:1031000018F052FF04295FD384988269B2427FD3BA
:1031100041690420D14B3246FDF746FB02460B467F
:10312000C94C6C44204611461A4615F0BFFA267861
:103130000A2E4DD0C4486844817C7291417C6D91C7
:10314000057CC348684400688B90C24868440068A6
:103150007E90BE4C6C4424680120719908706F9871
:103160000FF024F8012E08D00B2E8A99849E109B14
:103170003ED08CE2849E00F0B0FF6D9871947299FD
:1031800000298A99109B18D1042D849E859C00D912
:103190007EE20E2800D97BE22A4605460C206843D1
:1031A000B4215143A26951187E9A0A5008188A998D
:1031B0008B9A4260719A82606AE2849E67E2032081
:1031C00001F03FF97E950BE004208B90002006E093
:1031D0009F48684400688B909E48684400687E90D1
:1031E00071996F9801220A700EF0E0FF849E109B87
:1031F00010937E989449694408608B989549694476
:103200000860914868440AF041F8012400F079FF11
:103210000020934B314611F00FFA9248809C201801
:10322000FDF7A3FA0029639B07D022466861A961D4
:10323000E9610020186000F044FC899801216D9A32
:103240001170ABE088360020F42D00000C2E000039
:1032500004ED00E00D2E0000501D0000860000006F
:10326000F0EA01105B00000087000000B8EF0110D9
:103270006C0000005D0000005C00000070F70110B1
:1032800068F60110DCF5011040F7011060F701103D
:1032900004ED011000EC0110E4190000639A52687B
:1032A0008B923F9A52697192674D6D442C464CC97E
:1032B0004CC47E9C7199A17160718B9820716A4891
:1032C00080990E1830460ECD0EC0899800696F9017
:1032D00001688B9141687191304609F0C7FF639D89
:1032E0006861594868446690C01C1022314619F044
:1032F000A2FA01202E4628765C48809908181322ED
:10330000669919F098FA8B98A0607198E0606F9DAB
:1033100028460830309988608A98C8600020229C2E
:1033200060743146809E084618301431504AB218F5
:103330002523DB00EB1823606260A160E0604D484C
:1033400034187F98026840486844214603F014FA14
:103350003D48684400680C2814D03B4D6D442D68EE
:1033600020460EF003FF0B2D809900D0B2E34248B7
:1033700008180C46FDF7C8F900298FD12146639C37
:103380003F9D47E605206D99087007206299619B73
:10339000187003200870032002F038FD0EF08CFD39
:1033A000B3204001809D29182520C6003348684479
:1033B000324618F040FE0120829CA0753048291842
:1033C0008A78304B6B449A702A46285C4978090207
:1033D000081818802578022D02D103206299D9E7B8
:1033E0002649694438981446324618F024FE8198DC
:1033F00005702548201823496944032219F01BFA57
:10340000A7204000609A105CC01E042843D802A187
:10341000085C40008744C046033F0F093A0055202E
:10342000800010180EF033FD35E055208000101894
:103430000EF09CFE2FE05520800010180EF0E4FDE9
:1034400029E0C046E41A00003805000044050000E9
:10345000400500003C0500003009000024ED01108B
:1034600014ED0110D4190000081B0000051A00001B
:10347000D1190000181B0000F4190000501D0000B5
:1034800089170000280A0000391600002B20C00010
:1034900010180EF011FD729801680023819DAB6138
:1034A0003898E8611F207C9C22581B202058879E5A
:1034B0007161B061F261859CE3701835E31C8993FA
:1034C00082952B680AC63060726029214A018118F2
:1034D0008258083E072A14D82C2353431818FD4B52
:1034E000C018FD4B5B1C072A0DD8002444850485B9
:1034F000C4848484038383810380521C0A602C303B
:10350000F1E708200860B0680022F44969440A60C5
:1035100036997E920A602E99890042184658072EE5
:1035200019D88B9238217143081801214902441897
:103530003834072E11D8EA4D6D44EA4969442846CB
:1035400010F064FA38222046294619F074F9761CE6
:103550008B980660ECE7082010603898002800D1AE
:10356000BEE387990D1D859C7E9B23710861849E17
:10357000337009682246083223C223460833669313
:103580002246143223C206C871607E92B2600838A7
:1035900002460832869B72925A608A9D9D60002383
:1035A000839A5375D04B809CE3182524E4000419BA
:1035B000D4601361104615328B92321D6D920A460B
:1035C000719535466F93002606758699CC600B6120
:1035D0001346EA607E992961729A6A61719AAA61BA
:1035E00083610546C1613598C66001202F9A9072AB
:1035F000567214606F9850607F9802682C46183499
:10360000B7486844214602F089FEB54D6D442D68E7
:10361000022D0AD10320849E8B9908700320899A79
:1036200030700320629901F0ECF8B04868440068FB
:103630007E90AF4E6E44366820460EF05EFCE80782
:10364000849C34D00120869948618E617E98C8613F
:10365000839A8B9B354606468B950025157501246C
:103660001C706D980EF0B2FC002D49D035980560A5
:103670008B99416086607199C1606F990161416168
:10368000729981617E99C1618A99849E109B859C03
:103690000020307760690830359A7260B060F16060
:1036A00034461C347194341D6F94869CEDE40020E4
:1036B000869A506196617E99D161F1072ED0E068BB
:1036C00021697E9A04F010FF839A8B9B869908608B
:1036D0000B25E561266A0B2DBED100201075310344
:1036E000E068226971924118824A8A187E92091D07
:1036F00072918699CD6809698B916F960646AEE7FF
:103700008B98774969440860794868440660744832
:10371000684409F0BBFD849E00F0F3FC3599C86055
:1037200002212F9EB1727072E068236983998861CB
:103730000D46CB61D068126905C67F9802682C4699
:10374000183467486844214602F0E8FD644D6D4432
:103750002D68022D01D104205DE7644868440068AB
:103760007E90634E6E44366820460EF0C6FBE80736
:10377000849B06D00120839A9061D6617E98106266
:1037800067E70020839DA861EE61319C7E992160EE
:10379000F10715D017990874D9681A69869DEB68E6
:1037A0002D697E9E6660A360E56021616261511AA9
:1037B00000D201467E98002864D031997E9E63E055
:1037C0000621D96101212975179908708699C86861
:1037D0000969A861E9610C330FCB0CC420606160FA
:1037E0007F9802682C4618343D486844214603F00F
:1037F00091F83B48684400680C2801D106200AE78C
:103800003B4E6E443668364D6D442D6820460EF0B2
:10381000A9FB0B2D849A00D0F5E000203599C860F3
:1038200001212F9B99725872D0681269839988611F
:103830000D46CA61869AD068126905C37F980268EE
:103840002C46183426486844214602F067FD244D72
:103850006D442D68022D01D10720DCE62348684421
:1038600000687E90224E6E44366820460EF045FB7E
:10387000E807849C40D00120839A41C27E98106062
:10388000083AE6E60E0B3199701E88611720000297
:1038900080990C187F98026811486844214602F00C
:1038A00071FC0F48684400680C2801D10520B2E67D
:1038B0000F4E6E4436680A4D6D442D6820460EF05A
:1038C0000DFB0B2D849C00D09DE03006839A23D005
:1038D0000020FAE6240500006E080000340900000C
:1038E000380500003009000099160000400500006E
:1038F0003C050000FC0F00000020839D41C57E991F
:103900002960083DF1070AD0E06821697E9A04F039
:10391000EBFD839A06467BE031984068D5E6359901
:10392000C86002212F9B99725872E0682169A861D2
:10393000E9618699C868096903C37F9802682C46C3
:103940001834FB486844214602F0E8FCF84D6D4409
:103950002D68022D01D108205DE6FE48684400680C
:103960007E90FD4E6E44366820460EF0C6FAE8079B
:10397000849A00D0FEE6002083998861CE61319957
:103980007E9B0B60F1073DD017990874D1681269CE
:10399000869CE36872932469319D7E9E33466E60F7
:1039A000729EAE60EC6029616A61511A00D20146D4
:1039B000002B00D10B0B581E319988611720000293
:1039C00080990C187F980268E1486844214602F00B
:1039D000D9FBDF48684400680C2802D1849E169801
:1039E0001AE6E04E6E443668D94D6D442D68204687
:1039F0000EF074FA0B2D849C05D13006839A05D005
:103A0000002605E00625839A8B9B25E631984668BB
:103A10008B9B62E6044601208003E2B21018899A6B
:103A200012698B921368719352686F92639D6860FC
:103A30003F9840696690C64E6E44F01C182218F0FC
:103A4000FAFE02202872C848809908181B223146C5
:103A500018F0F1FE3A986699417104714398719992
:103A600081606F99C1608B9808307E9988608A98D0
:103A7000C8600020309C607428460830291D809E54
:103A8000BA4AB2182523DB008B9DEB1823606260D5
:103A9000A160E060B64834187F980268AC4868447A
:103AA000214602F069FEAA48684400680C2819D033
:103AB000A74D6D442D6820460EF058FB0B2D809AC3
:103AC00008D1AC481018FCF740FE0029A2D13F9D58
:103AD000FFF7A3FB01206D9908700C2D00D154E471
:103AE00089985BE406204EE4A34880990818FCF707
:103AF0003CFE002906D0002228616961A961EA61C3
:103B0000809995E00120287020460EF07DFA47E468
:103B1000439A12686F922A6966928D4D6D442C46C5
:103B20004CC94CC43299669A8A7748776F9808775F
:103B3000924880990C1820460ECD0EC08998C66810
:103B400030686F9070686690204609F08FFB439D47
:103B500028617F4868446590C01C1022214618F0F7
:103B60006AFE012028758648809C201813226599DA
:103B700018F061FE37986F9901606699416081483D
:103B800020182521C90071182D9A9161D06108363D
:103B900016608A9850600020219A5072284614308E
:103BA0001035156050607F98026869486844379CFA
:103BB000214602F0E1FD6648684400680C2817D0F1
:103BC0002046684C6C442468614D6D442D680EF0AD
:103BD000CDFA0B2D7AD18099449D6B4808180C467C
:103BE000FCF792FD002993D121468B9CFFF73DFA0B
:103BF00006206299449EFEF7EFFF7F9802685448C2
:103C00006844329C214602F0B7FD51486844006880
:103C10000C2863D02046534C6C4424684C4D6D44B2
:103C20002D680EF0A3FA0B2D50D18099449D8B9CEA
:103C300056480818FCF789FD002900D154E78B94F9
:103C40002A696F92524B6B445E9318225D92044630
:103C50006690184618F0EFFD01208003E1B20818C5
:103C60008999CE683168659171685F91439C206045
:103C7000374D6D44E81C5E995D9A18F0DCFD02201A
:103C800020714448809908181B22294618F0D3FD5A
:103C90007E986F99417066990170329865990160BC
:103CA0005F9941603748809908182521C90071182B
:103CB000379A9161D061083616608A98506000206A
:103CC0002D994872201D0C60486096E72048684492
:103CD0000560244868440460FFF751F8072088E72E
:103CE000879D286887906868869000244B2C07D0B1
:103CF000FFA8F03000190F2119F031FA0F34F5E761
:103D0000A8688590E8688490FFA8D0301E2119F03B
:103D10000BF9012189988B9101702B218298415CCC
:103D2000C91E052943D88A0002A189588F46C0467A
:103D300038050000A13D0010A93D00105D3D0010B8
:103D40004D3D0010993D00104D3D0010303024E0F5
:103D500038050000400500003C0500002C300EF046
:103D60001AFA24E03C050000F5190000D119000002
:103D7000F81A0000E4190000D41A0000081C000022
:103D8000051B0000D11A0000F41A0000E41A00001C
:103D900030090000F51A00002C300EF0B8F906E0EA
:103DA00030300EF0BFF902E02C300EF0BBF8809EF0
:103DB000F64831182520C200F5486844899218F069
:103DC0003AF9F44831188A78F34B6B449A70305CB6
:103DD0004978090208181880819C25789FA8FFA9B6
:103DE000D0311E2218F027FD8CA8FFA9F0314B22FC
:103DF00018F021F98B9820758395022D01D1FFF7DA
:103E0000CAFAFFA818307E909FA91E22719218F05E
:103E100012FDF2A872908CA94B24224618F00BF9DF
:103E2000A8A88190DA496944899A18F004F9DA4817
:103E300068448078A7A9829188703E98406908807C
:103E400000253560869870608798B0608598F0602E
:103E500084983061304614307E99719A18F0EBFCEA
:103E6000189805703046333072998694224618F0BF
:103E7000E2FC10980570C948301887908199899A9A
:103E800018F0D9F81A9883990170C54830180322A0
:103E90008299899218F0CFFC502D07D0BC48684415
:103EA00000214151401941601035F5E7BD4C6C448B
:103EB0000F25002D08D0B64969445022204619F03C
:103EC00013F96D1E5034F4E711F090FA8590849147
:103ED0000020B549C91D802804D0AD4A6A4411525A
:103EE0001030F8E70020182805D0B04969440222B4
:103EF0000A54001DF7E7EF2000010024809D2C509C
:103F00001B9E7561B46119990C6028184460846027
:103F1000E120C000281886990A01A24969448690C8
:103F200019F0E2F885983060849870601D9E899839
:103F30003071B07034801C988B990170F4723481A8
:103F40009B48281892496944802218F074F8B4817B
:103F50009848281895496944182218F06CFCF48098
:103F600095482818092119F0FAF88B98B072962C08
:103F700007D08C48684400190A2119F0F0F80A3477
:103F8000F5E7FFA8383087496944962218F053F8BE
:103F900000247C9E347074704B2C08D08148684497
:103FA0000019052119F0DBF87C9E641DF4E789985F
:103FB00030588249809C60506018F17901718048C6
:103FC0002018804961180F2218F035FC0B200025BD
:103FD00035507D482018FFA9383196228B9218F071
:103FE0002AF87A4820186F4969444B2218F023F8C0
:103FF0000720355089983550A12040012118694E7D
:104000006E4430461430822218F015F87048684427
:10401000899031468B9E324618F00DF870980560F5
:1040200045603998C4612C988799016069482018C7
:10403000F321090161183C2218F0FDFB66482018A5
:104040008999324617F0F7FF0620779A15507C9829
:10405000C01C0E215050901D6F90456015707D98CA
:104060000570889B1D615D618698986179980570DF
:10407000FEF775FB1CC90C39C968869D1CC50C3D33
:104080002C46E96028610020319908717F98026808
:1040900046486844214602F075F82046434C6C447B
:1040A00024680C2C00D1CBE1404969440D790DF016
:1040B00015FF0B2C11D1012D0FD830698168426991
:1040C00012035118454A8A18091D8161C261B169FC
:1040D00070693269869CFEF7DCFF31694A6988683D
:1040E000C96804F001FA3169486131690A694869AF
:1040F0009042BFD10120719908706F980EF056F868
:1041000000240120307066980EF00CF80020639BAC
:10411000187387998868859A906010790969516049
:104120002043144690700C337293101D7E9061688A
:10413000A068E06008688B904A686261284A294B51
:10414000809DEB1826462524E4000C1986984461CE
:104150008361C2612A46083101608A994160002169
:10416000839841708B9830611F4814187F980268BB
:104170000E4D6D442846214602F0CCF92E780C2EC7
:1041800034D1032072990870042038E31015000020
:10419000480A0000391600003C0A0000F012000036
:1041A00019140000501D00006E08000038050000C2
:1041B000B80B0000480C0000220F0000941500000E
:1041C00099150000F5140000FC140000A81500006B
:1041D00030090000102D00004C2D0000FC0F0000E5
:1041E00004F60110F919000088160000E24868443E
:1041F000018A7291C189719180896F90DF4868440A
:1042000000688B90DE4D6D442D6820460DF099FFBF
:104210000B2E0CD1D848684405608B98D849694466
:104220000860D548684409F031F8859C3EE08B99D8
:104230006D95082E859C39D17D20C20066920D4671
:1042400088B200242146234618F024FF859AD268BC
:104250004523DB00D050D018416023200001859910
:10426000C9686D9A0A50280C2146669D2A46234645
:1042700018F010FF11225201859BDB6898509818A6
:1042800041606F9821462A462346859C18F002FF1C
:1042900001229202E368985098184160E068B94999
:1042A000719A4252E068B849729A42520120639D65
:1042B00028737E980DF036FE8A9B18462038E06001
:1042C00000212975879C2169859A51600B3E7142B6
:1042D0007141859A92780A4385994A701E99C9005E
:1042E000A268859C5118A160221D8B92143563959C
:1042F00060612161606806C8A161E2612521C90091
:1043000008384118869AD16108309060D360002047
:10431000839B58729D489E49809A51181960586035
:104320009C4814187F980268934E6E44304621468C
:1043300002F0F0F836780C2E04D10320639908704F
:1043400005205CE28C496944C878934A6A449070BD
:1043500048788B781B0218181080884868440068D9
:104360007E90874D6D442D680C318C486844F8224E
:1043700017F061FE20460DF0E4FE0B2E0CD17E48B6
:10438000684405607E987E49694408607A486844BC
:1043900008F07CFF859C30E028467E9D002E859CA1
:1043A0002BD1754C6C440146E0707B486844006832
:1043B0002080E571080EA071080C6071080A207158
:1043C000754868448078A070280EA072280C60722E
:1043D000280A207220460B3070496944F52218F0F3
:1043E0002AFA85980069859949696D4A00928A9BE5
:1043F000203B2246859C11F083FD012063990870C3
:104400008B980DF0C8FE00203A9D28718799886826
:104410000969A160E0600B3E724272416378134308
:1044200023712A1D7292224608327E9200231122A5
:10443000520182182161214614310DC1849E05E08C
:104440000420719908700420FFF7E9F8904269D0C0
:10445000306044306061E069411CE161032109037F
:10446000C0B240187060206906C8F260B1600838B8
:1044700001460831869A91618A99D1610021839D14
:104480006976311D474A809CA2182523DB00C0189D
:10449000E8602A6122466961B520400114187F98BE
:1044A0000268354E6E443046214602F033F83678C5
:1044B0000C2E5BD03148684400688B90304D6D44C1
:1044C0002D682D4969440C3137486844F82217F0AB
:1044D000B2FD20460DF035FE032E10D028468B9DF0
:1044E0000B2E849E1AD124496944086024486844EC
:1044F00005602148684408F0C9FE012413E0849E49
:10450000346825608B9860602046083026496944ED
:10451000382218F090F9402000212152859C6069D2
:10452000A26993E7002401203A9D28717E980DF03E
:10453000EEFD00202870859B1879879A1169204329
:104540001C46187029204001926810185960986024
:10455000181D7E906168A068E16002C82061002299
:10456000A2612C224A43811861611FE003207299E5
:104570000870062043E1C0463805000040050000F1
:104580003C0500001C0500001E050000FCF50110A4
:10459000011A0000901600003C07000044060000CD
:1045A00028F60110111A000040070000884264D06C
:1045B000E0612C302061A069411CA1610521090343
:1045C000C0B240183060E06806C8B2607160083858
:1045D00001460831869A51618A9991610021839C34
:1045E0006175E649809B59182522D20080181A4629
:1045F0002346083343C3E24814187F980268E14E0B
:104600006E443046214601F085FF36780C2E59D095
:10461000DD48684400688B90DC4D6D442D68D949B5
:1046200069440C31DA486844F82217F004FD20464A
:104630000DF087FD042E11D028468B9D0B2E849EF5
:10464000859C17D1CF4969440860D048684405600B
:10465000CC48684408F01AFE01240FE0859CE0690C
:1046600005608B9941600830C9496944242218F0DB
:10467000E2F8849E2069616998E7002401203A9D50
:1046800028707E980DF043FD00202871879A1169EB
:10469000859B187820431C4618712E9880009268DC
:1046A00010189960D8602A1D7E921A4608327292BC
:1046B000216102C80022E261606138224A43811808
:1046C000A16104E003203A990870072097E088422E
:1046D00066D0306038306061E069411CE1610721DB
:1046E0000903C0B240187060206906C8F260B1606A
:1046F000083801460831869A91618A99D161002172
:10470000839D6976311DED4A809CA2182523DB002C
:10471000C018E8602A6122466961B520400114187A
:104720007F980268974E6E443046214601F0F2FEB3
:1047300036780C2E5FD09448684400688B90934D77
:104740006D442D688F4969440C31E8486844F8226B
:1047500017F071FC20460DF0F4FC052E11D0284610
:104760008B9D0B2E849E859C17D1864969440860D9
:104770008648684405608348684408F087FD012442
:104780000FE0849E306805608B9941600830D749FE
:104790006944302218F04FF8859C6069A16996E75A
:1047A000002401207E99087072980DF0B0FC002C56
:1047B000859C04D12079C00701D1FFF791FACC483C
:1047C00010F0ADFB8798006906C82523DB00083888
:1047D000C018231D07C300203070809AC5481118E7
:1047E0006848684403F04AFE6648684400680C283C
:1047F0000BD1092003E003207E99087008206299FC
:10480000899A10700420FEF7C5FD12F007F81E21EA
:10481000605001681960406858607E980160062207
:104820000F21A15073E0B44808187F99096811F06E
:104830000DF80028889B00D0EEE0186899680022E7
:10484000814200D15A687D981E30849053000C3309
:10485000042A4CD88A93849805688B92A818A421BE
:10486000445CA648143806688898806889900F28A8
:1048700000D35AE110F0BAFD7D22D20000238593C7
:1048800018F0CEFCA968421A11048A9B2BD087929B
:1048900081901F210C4001228292A2403240511E81
:1048A0008A410A21899E71436C188694E35A052433
:1048B00074432E198B983618B8208390365CB24218
:1048C00009D0142B879865D281B258188C49884238
:1048D00006D38B4804E0879881B2581A00D2859895
:1048E0008A9B869AD0528B9A521C9B1CB0E7889860
:1048F00080680E280AD8849909680818A921405CA4
:104900001F210140012088407C4908607E987E90EC
:104910000DF08AFCC00727D0889881600E290CD83A
:104920001E207D9A10584018A921405C1F2101408B
:10493000012088407149091F0860724868440122BB
:10494000002310F043FF7048684400686F496944D1
:104950000968769A12680A237D9CE25022460A3240
:104960005160A07480995EE71E207D9C2158002232
:104970000A604A602058889B4BE7C0460D1A000029
:104980009C16000038050000400500003C050000B2
:10499000380800008A9841188198A86000208A9001
:1049A0006852849E316809198B9D4919839BCA5CA2
:1049B00082984240CA54889B9968326822C2316802
:1049C00009194919839A895C18732A04899B1B0663
:1049D00013431A0E779CA27565758A982075E17449
:1049E000A07458184A497E9A03C24A488099081808
:1049F0007F9909680FF008FC889B002810D17298F5
:104A000000681A217D9C605000211973A11C7E91C1
:104A100019460C317191FAE603207199087000E093
:104A200004207D990870809A18695969014301D062
:104A300000F0FEFB8191799800780126364D899629
:104A40004000C04678448088400087440600680AD9
:104A5000680A9E020900240027039C69DC616BE25E
:104A60002E4810188A90699A104610308B90107C4E
:104A70007A9B4000784480884000874408005B00AF
:104A8000500A8900A6000C01D600F1000F00D4687E
:104A9000809B8A9857E0799A5068EFE21846083070
:104AA0008390187A809A4000784480884000874438
:104AB00007004400360A9D0147010C00111A00004E
:104AC00069998869C9697A9BFEE015481018829037
:104AD0006A98007802A14000085A40008744C04606
:104AE000220030001F0A8E034D03C046300900002B
:104AF000700000007C160000102E0000180000D08E
:104B0000FFFF0000501D0000581D0000541D000054
:104B1000F83B0020082E00006E080000502E000018
:104B2000C82E000075998869ABE10F21EF4A89987A
:104B30000FF0D6FDEE4810F05FF9EE4810F05CF98A
:104B4000ED4810F059F99460EC49591828228A90E0
:104B500017F071FE3D988188E9484018001DA94270
:104B6000799B00D8042080B2032839D0012837D09F
:104B7000002800D082E01C4610F038FCE1487A9909
:104B800088600020087020696169699A9061D1612C
:104B90007F980168104618300FF05EFAC1B2022902
:104BA000809A799B6CD0032900D180E1699A1076B4
:104BB000010C9176010A5176000ED07600207A9B86
:104BC000187790689169196058607F980168184655
:104BD00009F0E4F87A9900288A9D4BD0042065E119
:104BE000988BC74941188AB20121022A00D30021BB
:104BF0006A1C9042304600D3084600283ED01C462E
:104C00001C34C1481D4610F07FF9204614F05AFCB0
:104C100010F06EFABB487A99886000200870286905
:104C20006969BA4D699A9061D1617F9801681046AF
:104C300018300FF011FA7A9B699AC1B202293AD062
:104C4000032900D131E11076010C9176010A5176E9
:104C5000000ED0760020187790689169196058602E
:104C60007F980168184609F099F87A9900288A9D7A
:104C700000D012E108460DF06CF899E28A9D97E2A7
:104C800000207A9D2872699CA0689969A161E06101
:104C90009F48101828609F4880990C187F980168D9
:104CA000204609F0D5FB00288A9D00D0F9E0204677
:104CB0000DF06DF87CE200201872906890618A997E
:104CC000D1611A460832839203C38A8A8C4BD31867
:104CD0009CB20123022C00D300236D1CAA42324651
:104CE00000D31A46002A00D1F6E00B8C844AD21871
:104CF000121D864CA34200D8042292B2012A7A9E49
:104D000039D0032A00D0EAE0834A80584C8C83498A
:104D10000DF078FA0D4680687A9E7168143122464B
:104D20000CF044FE2968491E296006CE1269002352
:104D3000759C2372B060F2603161809A899E734DD8
:104D4000774810187F9909680BF046FC00287A9A7A
:104D500000D0A8E0AB20C00006CA0918507C937CA4
:104D60001B021818D27C120482186E48684412F094
:104D70007BFC7A9C55E0498CB1814900491CF1814A
:104D80006549405868490DF03DFA0C468068F28943
:104D9000716814310CF04EFE2168491E216081B209
:104DA000A94217D1AB20C00006CE0818517C937CD5
:104DB0001B025918D27C12048918083E12F02AFAF4
:104DC000002866D0F1894184504DE91C01843446A5
:104DD000899E26E0306106CE126930617261002042
:104DE000759A10731160809A899E484D4F4810182B
:104DF0007F9909680CF098F800287A9C4FD1AB2075
:104E0000C00006CC0818517C937C1B025918D27C38
:104E100012048918083C12F0FDF9002801D021691C
:104E200001622B20410120684318AB21C900425880
:104E30002821514300291AD01A469B8A304C1C194C
:104E4000A4B2022C01D3002400E001246D1CAB426B
:104E5000354600D32546283913462833012D2B4DDE
:104E6000E8D1AC1C128CA242E4D18A9D9DE10021C4
:104E70006A9A1170759B98612949809A511882919C
:104E80001946C861AB21C9004158022911D2759950
:104E900015E13446899E1D4DC3E7072006E0032037
:104EA000BBE1052002E00420B7E10620809A889B40
:104EB000B8E12B2252018618152913D2159A8418AD
:104EC00028254D43283D002DE1D0304621460DF0E8
:104ED00017FB283D2834F6E7154800F063FE154817
:104EE00000F060FE30460DF083FED0E75CE4011078
:104EF00064FC011014FE011024FE0110782E000045
:104F00008DF70000F83B0020280000006E0800002C
:104F1000642E0000B02E0000F407000004FE011013
:104F2000C82E0000501D0000F4FD0110D02E00001E
:104F3000890000008D0000007B98C0002258002AE4
:104F40002FD025180120C0022118E8798B90A8796C
:104F50008A90287987906E79281D541EA20017F038
:104F600060FC2C603002879940188A9909048B9A5A
:104F700012065118081800213D9A11708899C969C4
:104F8000799A50609060D160809ACB4814187F98CD
:104F90000168204608F002FF002800D187E00320C6
:104FA0008AE0AB20C00020180168282048432B214C
:104FB00049016518799A00285ED02E8CBF498E422F
:104FC00001D8042102E0BE498919091D89B20129CD
:104FD00004D0002917D0032912D114E0A98AB84AB5
:104FE0008A1892B2022A01D3002200E00122B34BB8
:104FF0005B1C9942899900D311460029799A02D104
:1050000028352838D7E7AF4868448A9028302022CE
:10501000294617F010FCE88CFFA9F0318B918880AD
:10502000688CA98C09040818A74969440860A74836
:1050300068448790482286928A9918F055F89E48CD
:10504000809D28188A908799869A18F04DF869985B
:10505000068006469E48281806228B9917F0EBFB1F
:105060002B468A98324600213174F4603146103163
:105070008B91899E914D66E5964850607F990968AD
:105080001446FBF723F9889BC1B20229809A3D9D03
:105090000FD000212970D969A060E16086481418FA
:1050A0007F980168204608F079FE002803D1204649
:1050B0008BE00520B9E00620809A889BB5E02B2084
:1050C0004201C86985928518AB21C90042188792B0
:1050D00086914158282384934B430022784C002B1F
:1050E0005BD0AE8AA619361DB6B2042E03D3283B78
:1050F000521C2835F3E7734C6C442046879912F014
:10510000EDFE6E48401D218C814242D06D496944BC
:105110002822829817F08FFB759DE8696E494058E8
:105120006E490DF060F803460C462A686C4D6D44DC
:105130002846194607F0E6FF2068401C20602988B1
:105140005F484018001D5D4A914200D8042080B29B
:105150000228809A43D003287599B0D100201F9B64
:105160001870C8696A9B18610868D8605C48684410
:10517000418880880004401898602F200002101891
:105180007F9909680BF028FA0028759997D00420B8
:1051900040E07598C069869941588A9D022901D3DB
:1051A00000F0CAFC01206A990870012083990870F8
:1051B00001208B9908705820285C072803D0052807
:1051C00006D0042808D1683528460CF0C2FD03E05B
:1051D000603528460CF0DBFD8898C469ACE60020F9
:1051E0006A9B18777599C86918610868D8603C4847
:1051F0006844418880880004401898602F2000028D
:1052000010187F9909680BF08FFE0028759900D15E
:1052100055E703206A9908700520809A889B839936
:10522000087008208B99087004207999087081997A
:10523000484248416D99014301D000261BE06F9A16
:1052400003CA01267040083A084301D000F09DFCD3
:10525000022100201160506015461A691C465B69E6
:1052600072401A4301D000F090FC2161606103217B
:1052700029606860809A709903C9014301D000F0E9
:10528000BDFD7B91709D08357798007801217D9157
:1052900000287E9628D06E9A10461C30117F002977
:1052A00001D000F023FC517FC90701D100F01BFCA5
:1052B0000C480FF0A1FDC046502E00006E08000003
:1052C0008DF70000501D0000EC040000480A0000AB
:1052D0009A2E0000F83B0020F407000034FE011075
:1052E0003805000020F701106D956F4811183998A6
:1052F000C0696A906D4868448190EC3014468222FF
:1053000016F099FE6A4823186A4821182C980068FC
:1053100066903C226993184617F08DFA2798016829
:1053200088914168879181688691C16884910169FB
:1053300083914169829180697A905F4868448B903B
:1053400080258A95294617F0EFFD5C4C6C44204679
:10535000294617F0E9FD5A482146FBF703FF0025CF
:105360008C958D958E958F953E9E35627562B56252
:10537000F562544C20464830859050496944FBF70B
:10538000D7FE2046593079908CA9FBF7D1FE4E48C4
:105390008B99FBF7E7FE4D48684405608A984C49B5
:1053A0006944086046484B49694408604A48684473
:1053B00005600420899049496944086001244848EF
:1053C0006844046010207590859931637063B563FB
:1053D000F563B5623562FFAAD032E1209071A0205A
:1053E00050711571D470957055701570FFA8F0301C
:1053F000729002217191072310F0E6FA8B94F46306
:10540000899C34642D4E6E440F21364A03238593C4
:10541000304610F0D9FA344A30467199234610F0DC
:1054200061FB1C22819C2046729917F004FA1C34FF
:1054300024222046314617F0FEF9299A7A98D06145
:10544000289B1D73294898602948D8808598C001F9
:1054500001469031998042305880759C1C802A9872
:1054600005604561184818618A9858612B98899998
:105470000170769888990166879941668699816658
:105480008499C166839901678299416715707999FA
:105490000246503232C2856405640A48801D00F01D
:1054A000E1FDC00726D061E3602D0000501D000023
:1054B000B02C0000102D000038050000480A000044
:1054C00085350020203D0020063600200405000020
:1054D00000050000FC040000F4040000F0040000DB
:1054E000EC040000B407021000F6011001400101B5
:1054F000EF020000D44880990E188A96D348C11D47
:10550000D34C6C44D34A2046FBF7DAFD1720020146
:1055100030462146879216F08EFD76980562CE4C75
:105520002834CB4969442046FBF7E8FDC7480930D9
:10553000FBF732FEC94B6B448B99997440218891DB
:105540001982C749C74A6A441160C749694408605B
:105550004320C64969440860C5483E9908607D9863
:105560000090BB4E6E4430468A992246FBF7D6FB2C
:10557000F07C8490B37C70898390B0898290F089AC
:105580008190308A7A90BB48684406CE06C0318844
:1055900001808693042B00D1E5E2769C60697990C6
:1055A000B4486844B44969440CC80CC100880880F8
:1055B0002562A94E5036A64969443046FBF79EFD48
:1055C000A2480A30FBF7E8FD9FAB8B999974889944
:1055D0001982A349A291A1906F20A090A7489F9003
:1055E00000959B4C6C4420468A993246FBF796FB0B
:1055F000A07CA04969440CCC0CC122880A800428F4
:105600008B9E00D0CDE29B486844914969440A468C
:1056100018C818C2008810809948809A10186590A0
:105620000CC90CC0098801808995769805628A4C5E
:10563000874969442046FBF761FD84480830FBF741
:10564000ABFDFFABD0339E748899198284498D4A93
:105650006A4411608C49694408601B208B49694485
:1056600008608B488B49694408607D980090784DAC
:105670006D4428468A992246FBF750FBE87C7590DA
:10568000AE7C68897290A8897190EA892B8A794CDE
:105690006C4403CD03C4288820808896042E00D152
:1056A00061E27A9800048199401881908298000400
:1056B0008399401883901804801882907198000490
:1056C000729940187A9076984669614D6D44A81C8D
:1056D000684969440A24224617F0ADF8399875994B
:1056E00041738899017306607A994160829981605B
:1056F0006948809E30180C22294617F09CF83C9887
:105700008499417386990173799901608399416005
:1057100081998160614830185749694479902246DF
:1057200017F089F84A4C6C4420468A99879A16F0FB
:1057300082FC5B4831184F486844202217F07BF800
:105740001C347A943E98826B002A00D1B0E0006B42
:105750003E99496B474B6B44083310F02FFA3E9942
:10576000086A002289920A620D6B4A6B8A928E6BDC
:10577000012812D14C6A4B480090A01D21460831E7
:105780002A468A9B10F0BEF8331B474A6A441380AE
:10579000464B0093022310F01DFB42480090082066
:1057A0000A212A468A9B10F0ADF83F4A6A441680C7
:1057B0003E4B0093022310F00DFB002E78D08A9808
:1057C000072800D8D7E1384A6A4400201076567579
:1057D0009F2111748A21D173642191739E21517389
:1057E0009D2111736521D172D22191729C21517238
:1057F0004C211172C721D1714521917189215171BB
:10580000D8211171DD21D17060219170DF2151709B
:10581000107018486844047FD475300A9075E87990
:105820001075A879D074687990742879507405211E
:1058300019237A9810F056F98A98864200D99EE189
:1058400075948B9536E0C046202A0000203D00204C
:10585000501D0000C8EF01108C3D0020280A0000F8
:1058600004F70110340A0000300A00002C0A00007E
:10587000E4010210480A00003C0A0000270202105E
:105880004C2D0000D8040000D4040000D004000017
:1058900098010210CC040000FA2C0000562D0000E4
:1058A000602A0000F80702103805000008080210FE
:1058B000899E759676988996044610341CCCBD480E
:1058C000009002250421284610F01CF8BA4A6A44C8
:1058D0001480BA4B009384952B4610F07BFA76998E
:1058E0004D6B002D13D000208863CA6A0B6BB4483F
:1058F000009002240421204610F004F8AE4A6A44C5
:105900001580B04B0093234610F064FA76993C98CA
:1059100010307290339C20898A90A07A8890E07A27
:105920008790207B8690607B839020886090608841
:105930005F90A0888290086E5B90486E5C90886E45
:105940008190C86E5D900E6F486F5E909E4D6D4465
:10595000284610F0B9F8639071917A9810F0B4F875
:105960006290619199489A4901609A489A494165C3
:105970009A49C16423988001809908187399890015
:105980007695691862695A92A2695992402216F076
:1059900052FF012134987391C1747A96002E859834
:1059A00000D17A98349DA8748199481E814148009D
:1059B00068745B9C601E2146814129748299080AA3
:1059C000E873A9735F9B180A68732B73609A100AB7
:1059D000E872AA7283996972869828728798E8712A
:1059E0008898A871849868718A98287189204000E5
:1059F0006880249801815A9E0660599E46603C98B2
:105A000004615C9C4461819C84615D9CC461259CB3
:105A10007A9820605E986060228163818298A0817C
:105A20006175869820758798E0748898A0748A9824
:105A300020823398C088E081FA4880990818769EC1
:105A400031468631062216F0F6FE6398E06126980C
:105A500075990175719901606299416061998160E0
:105A60008B99C16089990161F448809C2018314666
:105A7000D831142216F0DFFEF14820189436442263
:105A8000314616F0D8FA739828778398E876869886
:105A9000A87687986876889828768498E8758A9892
:105AA000A875E848A88200242C70E7488099081857
:105AB000072117F054FB6D9D2C606C6078987299EB
:105AC0004161669981616A99C1616E9A14753998CC
:105AD0001060699850603C9890607998D0606598A3
